:020000040800F2
:10000000E8400020AD0100089F560008B302000838
:100010009D56000869090008BD6500080000000041
:1000200000000000000000000000000069620008FD
:100030006B09000800000000FF0100086B62000867
:10004000C7010008C7010008C7010008C701000870
:10005000C7010008C7010008C7010008C701000860
:10006000C7010008C7010008C7010008C701000850
:10007000C7010008C7010008C7010008C701000840
:10008000C7010008C7010008C7010008C701000830
:10009000C7010008C7010008C7010008C701000820
:1000A000C7010008C7010008C7010008C701000810
:1000B000C7010008C7010008C7010008C701000800
:1000C000C7010008C7010008C7010008C7010008F0
:1000D000C701000891650008C7010008C7010008B2
:1000E000C7010008A1560008C7010008C7010008A1
:1000F000C7010008C7010008C7010008C7010008C0
:10010000C7010008C7010008C7010008C7010008AF
:10011000C7010008C7010008C7010008C70100089F
:10012000C7010008C7010008C7010008C70100088F
:10013000C7010008C7010008C7010008C70100087F
:10014000C7010008C7010008C7010008C70100086F
:10015000C7010008C7010008C7010008C70100085F
:10016000C7010008C7010008C7010008C70100084F
:10017000C7010008C7010008C7010008000000000F
:10018000C7010008C7010008DFF80CD000F068FACA
:1001900000480047DB060008E840002030BF72B688
:1001A000704762B6704780F30888704706488047FA
:1001B00006480047FEE7FEE7FEE7FEE7FEE7FEE74C
:1001C000FEE7FEE7FEE7FEE7256300088901000879
:1001D000EFF3108072B6704780F310887047434A7F
:1001E0001368012B04D04FF001031360404A1060E4
:1001F000404A116040484FF0805101607047EFF372
:10020000108272B63948016851B34FF000010160A5
:100210003748016891B1EFF309811EF0100F08BF54
:1002200021ED108B21E9F00F4FF000041EF0100FAC
:1002300008BF012441F8044D006801602D49096898
:10024000096808C9B1E8F00F002B18BFB1EC108B9A
:1002500081F309884EF0100E002B18BF2EF0100EFF
:1002600082F310884EF0040E704722490860EFF3C5
:10027000148222F0040282F314881D494FF000001A
:1002800008601A494FF0010008601C484FF47F01D4
:10029000D0F8002041EA0201016017484FF0805178
:1002A000016017480068006880F3088861B662B68C
:1002B00070471EF0040F0CBFEFF30880EFF30980C6
:1002C00020E9F00F40F804ED40F804ED1EF0040FB3
:1002D0000CBF80F3088880F3098800B508F0ECFDB6
:1002E0005DF804EB4EF0040E704700008000002023
:1002F000780000207C00002004ED00E020ED00E00C
:1003000008ED00E02DE9F05F0546002092469B468F
:1003100088460646814640241BE02846414647461B
:10032000224600F02FF953465A46C01A914110D385
:1003300011461846224600F016F92D1A67EB0108FF
:100340004F4622460120002100F00DF917EB00096D
:100350004E41201EA4F10104DFDC484631462A4606
:100360004346BDE8F09F40EA01039B0703D009E044
:1003700008C9121F08C0042AFAD203E011F8013B91
:1003800000F8013B521EF9D27047D2B201E000F8EA
:10039000012B491EFBD270470022F6E710B5134629
:1003A0000A4604461946FFF7F0FF204610BD421EDC
:1003B00012F8013F002BFBD111F8013B02F8013B81
:1003C000002BF9D1704710B5044604E00B7800F813
:1003D000013B03B1491C521EF8D2204610BD421CFD
:1003E00010F8011B0029FBD1801A704730B5044674
:1003F0000020034600E05B1C934203D2E05CCD5C2E
:10040000401BF8D030BD034611F8012B00F8012B3A
:10041000002AF9D11846704730B50546002003463A
:1004200000E05B1C934205D2EC5CC85C201A01D151
:10043000002CF6D130BD2DE9FE4F81EA030404F013
:10044000004421F0004100944FF0000B23F00043E2
:1004500050EA01045ED052EA03045BD0C3F30A54AD
:10046000C1F30A552C44A4F2F3340194A0FB0254C6
:10047000C1F3130141F48011C3F3130343F4801358
:1004800001FB024400FB034E840A970A44EA8154AC
:1004900047EA8357A4FB076802958D0A05FB078589
:1004A0004FEA932C04FB0C542705029D4FEA065893
:1004B00047EA1637B5EB08056EEB070C870E920E70
:1004C00047EA811742EA8312A7FB0201B6EB0B0150
:1004D00064EB00042B0D43EA0C335E1844EB1C5014
:1004E000DA465146E7FB0201C5F313044FEA0B332A
:1004F00043EA14534FEA0432019C43EA0603A4F191
:100500000C040294009CCDE900B400F05AF803B04A
:10051000BDE8F08F00200146F9E70EB540F2334107
:1005200002910021CDE900110A460B4600F049F87E
:1005300003B000BDC1F30A5210B5C1F3130140F27C
:10054000FF3341F480119A4201DA002010BD40F2DD
:1005500033439A42A2F2334203DC524200F012F8D3
:1005600010BD904010BD202A04DB203A00FA02F1B1
:10057000002070479140C2F1200320FA03F3194391
:1005800090407047202A04DB203A21FA02F0002133
:10059000704721FA02F3D040C2F120029140084393
:1005A0001946704710B5141E73F1000408DA401C98
:1005B00041F1000192185B411A4301D120F0010082
:1005C00010BD2DE9F04D92469B4611B1B1FA81F272
:1005D00002E0B0FA80F220329046FFF7C4FF0446F2
:1005E0000F4640EA0A0041EA0B0153465A460843C7
:1005F00013D0114653EA010019D0C8F14002504609
:10060000FFF7C0FF05460E46504659464246FFF7E3
:10061000AAFF084305D0012004E020463946BDE882
:10062000F08D0020054346EAE0762C4337430A98D4
:100630006305E40AA0EB08000022FD0A44EA4754DF
:100640000A3002D500200146E9E701051019694189
:10065000DDE9084500196941BDE8F04DA2E7000059
:10066000064C074D06E0E06840F0010394E80700FF
:1006700098471034AC42F6D3FFF78AFD600B0108AF
:10068000800B010870B58C1810F8015B15F007039A
:1006900001D110F8013B2A1106D110F8012B03E01B
:1006A00010F8016B01F8016B5B1EF9D12B0705D423
:1006B0000023521E0DD401F8013BFAE710F8013B6C
:1006C000CB1A921C03E013F8015B01F8015B521E88
:1006D000F9D5A142D8D3002070BD10B50AF038FF7B
:1006E000002010BDF0B55F4C87B000224FF40071C0
:1006F000204600F007FB01229102204600F002FB99
:1007000002F022F905F05CFF574C4FF4784058A1F5
:1007100020605648828804A805F0F2FF0AF02EFFF8
:100720001F202060012255A1554806F0ADFC102481
:1007300048B154A0CDE900401023C82296211E20C4
:1007400004F0BDFD1FE054A0CDE900401023C822F5
:1007500096211E2004F0B3FD53A0CDE900401023E4
:10076000C822AA211E2004F0AAFD55480523D0E97D
:100770000610A1FB0001020D42EA0132AA218620E7
:10078000009404F061FD05251E20CDE902054FF41B
:1007900080764C49CDE900164A4800234A4A4BA1CD
:1007A00090380AF0C3F84C480AF092F803274FF447
:1007B0009673002249494AA000970AF0BBFB4B4CB4
:1007C000E0600AF069FC10B149A005F089FF4FF420
:1007D0007A70CDE9000700234A4A4BA14D480AF040
:1007E0002BFC4C480AF058FC10B14BA005F078FFE8
:1007F000484A00275C3220234CA102F18000009778
:1008000008F026FE4FF40060CDE90007494A0123B5
:1008100049A1A2F13C0009F0A9F81B20CDE902058D
:100820004649CDE9001645480023454A45A1903880
:100830000AF07CF83748002246A1343008F04AF824
:100840003448002346A12838626809F09BFC1D4803
:1008500090380AF03FF9394890380AF03BF907B070
:10086000F0BD000000140240480000207C1400206D
:100870004C43442049443A2530345800303A000073
:100880008001002053442043617264206572726FBE
:100890007220202020000000534420436172642015
:1008A0004F4B2020202000005344204361726420DD
:1008B00053697A653A20202020204D420000000034
:1008C000682500207806002055B800087465737408
:1008D0005F7468726561640009A90008D5AC0008FE
:1008E00074696D65725F74657331000000000020EB
:1008F00054494D4531205445535420657272210DA1
:100900000A000000F5AC000874696D65725F7465DB
:10091000733200003009002054494D4532205445BF
:10092000535420657272210D0A0000006D61696CDC
:10093000626F7800800A00206D7174000808002042
:100940005DB70008746573745F73656D6170686F7F
:10095000726500006576656E745F7465737400007F
:100960006473656D00000000FEE7704770B5B3F575
:10097000804F05D06FF0704140F82210002070BD0C
:1009800050F82240084B8E891C40D1E9003543EADB
:1009900005138D6889692D0245EA06452B430B43F3
:1009A000234340F82230E9E70000F0CFF0B50C68AF
:1009B00050F82430114A1340D1E90125D1E90367E9
:1009C0002A433E4332434E6932438E693243CE69F5
:1009D00032430E6A32434E6A32438E6A3243CE6AE3
:1009E0003243CE6B096B32430A431A43082D01D1BF
:1009F00042F0400240F824200020F0BD8000F0FFCB
:100A000030B500EB820250688D8900F04043D1E997
:100A1000000440EA04108C68240244EA05442043A0
:100A20000C8A074D05EB045420430C7D6D0105EB4A
:100A3000046489692043084318435060002030BD96
:100A40000000F0FF90F83510022903D080214165A5
:100A500001207047052180F835100068016821F0F9
:100A6000010101600020704770B5044600F050F9A4
:100A70000546601C02D004480078044400F048F9A0
:100A8000401BA042FAD370BD200000202DE9F041A8
:100A900086B014216846FFF77FFC204801680029D2
:100AA00039D1012101601E480024016841F0010193
:100AB000016000684FF4805800F001000C27CDF869
:100AC0000080CDE90470032602250396CDE9015488
:100AD0006946144800F02EF84FF68070CDE9000505
:100AE00002AA694682E8D0000F4800F023F84CF2D1
:100AF0003370CDE9000502AA694682E8D0000B48B0
:100B000000F018F802AA694682E8D000CDE9008515
:100B1000074800F00FF806B0BDE8F081180000208B
:100B2000383802400014024000100240000C02401D
:100B3000001802402DE9F84F00224FF0010803256C
:100B40004FF00F0E0B6808FA02F42340A3426ED157
:100B50004E68012E05D0022E03D0112E01D0122E88
:100B600012D186684FEA420C05FA0CF7BE43CF68F3
:100B700007FA0CF7374387604668A6430C79C4F33D
:100B80000014944034434460C668570005FA07FCDB
:100B90008C6826EA0C06BC403443C4604C68022CC6
:100BA00001D0122C13D1D40800EB8404A346D4F84E
:100BB000209054074FEAD46A0EFA0AF629EA060989
:100BC0000E6906FA0AF646EA0906CBF820600668BE
:100BD0000C7926EA0C0604F00304BC40344304609C
:100BE0004C68E40065D5364C266846F4804626609D
:100BF000246822F0030604F480440094314C344409
:100C0000A446D4F808489607370F0EFA07F6B443FF
:100C10002D4EB04201D1002624E02C4EB04201D12D
:100C200001261FE02A4EB04202D102261AE040E01F
:100C3000284EB04201D1032614E0274EB04201D124
:100C400004260FE0254EB04201D105260AE0244ECD
:100C5000B04201D1062605E0224EB04201D107265E
:100C600000E00826BE402643CCF808681E4E3468D3
:100C70004F689C43FF0300D51C4334601A4C241D6D
:100C800026684F689E43BF0300D51E432660164E5C
:100C9000083634684F689C43FF0200D51C4334601B
:100CA000114E0C3634684F689C43BF0200D51C437C
:100CB0003460521C102AFFF445AFBDE8F88F0000E5
:100CC000443802400030014000000240000402406D
:100CD00000080240000C02400010024000140240D4
:100CE00000180240001C0240003C0140006908401E
:100CF00000D001207047426931EA020200D10904A4
:100D0000816170470AB1816170470904FBE7000007
:100D10000148806870470000200000200248816878
:100D20000278114481607047200000200B4810B504
:100D3000016841F400710160016841F48061016063
:100D4000016841F480710160032000F06FF8002019
:100D500000F006F800F024F8002010BD003C02402E
:100D600070B50D4D04464FF47A712878B1FBF0F060
:100D70000A490968B1FBF0F001F098FB48B9102C62
:100D800007D200222146501E00F030F800206C608F
:100D900070BD012070BD0000200000202C0000204C
:100DA0000A4808B5016841F480410160006800F418
:100DB000804000900548001F016841F080510160AB
:100DC000006800F08050009008BD000044380240E8
:100DD000002809DB00F01F0201219140400980003A
:100DE00000F1E020C0F8001170470000F0B40E4B95
:100DF0001B680C46C3F30223C3F10705042D00D979
:100E00000425191D072901D2002300E0DB1E01265D
:100E100006FA05F1491E214099409E40761E164073
:100E20003143F0BC05F080BC0CED00E0064900F059
:100E3000070208684FF6FF03184040EA0220034A01
:100E400010430860704700000CED00E00000FA0558
:100E50002DE9F843054600684FF00109C1074FF03E
:100E6000000601D1400727D5DFF80C81C8F868607B
:100E7000FFF74EFF0746414C05E000BFFFF748FF74
:100E8000C01B022857D820680001F7D46868810188
:100E9000287A41EA0070394984310860C8F86890BE
:100EA000FFF736FF074604E0FFF732FFC01B0228BA
:100EB00041D820680001F7D52878800752D52F48FF
:100EC0004030016841F08051016000682C4C00F016
:100ED00080500090206840F480702060FFF718FF79
:100EE000074604E0FFF714FFC01B022823D8206840
:100EF000C005F7D5214C7034206810F4407020D024
:100F0000A98901F4407181421BD020681D4920F459
:100F10004070C1F800900E6020602068C00710D0BB
:100F2000FFF7F6FE064641F2883707E0FFF7F0FECE
:100F3000801BB84202D90320BDE8F88320688007EF
:100F4000F4D5E9680D48C1F301220830032A0BD01B
:100F5000016821F4F81101602068A989C1F30B012F
:100F6000084320600020E7E70268074B22F4F812EC
:100F700019400A430260EFE7000047420038024090
:100F800000700040400E4742FFFCFF0F2DE9F04784
:100F90000E46050065D0DFF81481D8F80000F7B2DE
:100FA00000F00F00B04207D288F80070D8F80000B7
:100FB00000F00F00B04254D128683D4C810712D593
:100FC000400703D5206840F4E050206028780007EF
:100FD00003D5206840F4604020602068A96820F0B4
:100FE000F000084320602878C0072DD03049686899
:100FF0000839012812D0022813D0032811D009681B
:10100000890700292DDA216821F0030101432160BD
:10101000FFF77EFE814641F2883A0EE009688903B7
:10102000EFE709688901ECE7FFF772FEA0EB090121
:10103000514502D90320BDE8F0872068696800F0B7
:101040000C00B0EB810FEFD1D8F80010404601F052
:101050000F01B14207D90770006800F00F00B042DD
:1010600001D00120E7E72878400705D52068E96826
:1010700020F4E050084320602878000706D5206857
:10108000296920F4604040EAC100206000F03EF889
:101090002168084AC1F30311515CC8400649086041
:1010A00006480068FFF75CFE0020C4E7003C0240F1
:1010B00008380240FEB900082C000020240000205F
:1010C00001490120C86470470000474204480549AF
:1010D00000680968044AC1F38221515CC840704726
:1010E0002C000020083802400EBA000804480549C8
:1010F00000680968044AC1F34231515CC840704736
:101100002C000020083802400EBA0008154810B51F
:10111000006810F00C02144813D04110042A0FD0BC
:10112000082A0ED10F4C241F2268236802F03F02C8
:101130005B0207D52068C0F38810A0FB010106E020
:10114000084610BD2168C1F38811A1FB00010023EE
:10115000FFF7D8F82168C1F30141491C4900B0FBF1
:10116000F1F010BD083802400024F4002DE9F84FDA
:10117000040076D02078DFF838A3CE4DC00749D0E0
:10118000DAF800105046C1F38101012908D0006847
:10119000C0F3810002280AD1281D0068400206D54C
:1011A0002868800336D560680028E2D032E06068A5
:1011B000B0F5803F10D0B0F5A02F286810D020F4F3
:1011C00080302860286820F4802028606068A0B102
:1011D000FFF79EFD06460CE0286840F48030F4E7F7
:1011E00040F480202860F7E7FFF792FD801B642819
:1011F00073D828688003F7D50CE0FFF789FD064611
:1012000005E000BFFFF784FD801B6428F0D8286844
:101210008003F7D42078DFF8A08280074FF0000920
:101220003ED5DAF80010504611F00C0F09D00068D6
:10123000C0F3810002280BD19D48001F00684002C6
:1012400006D42868800715D5E068012809D111E087
:10125000E068B8B10120C8F80000FFF759FD064664
:1012600005E020E1FFF754FD801B0228C0D8286864
:101270008007F7D52868216920F0F80040EAC1000E
:1012800028600DE0C8F80090FFF742FD064604E034
:10129000FFF73EFD801B02281FD828688007F7D47F
:1012A0002078000722D5824E844861696C3671B17E
:1012B00001210160FFF72CFD074604E0FFF728FD40
:1012C000C01B022809D830688007F7D50EE0C0F8A7
:1012D0000090FFF71DFD074605E082E0FFF718FDCF
:1012E000C01B02287DD830688007F7D420784007DB
:1012F00068D5DFF8BCB100270BF1380BDBF8000034
:10130000C0000BD4DBF8001041F08051CBF8001086
:10131000DBF80000012700F080500090684E306834
:10132000C00510D4306840F480703060FFF7F0FCE6
:10133000009005E0FFF7ECFC0099401A022850D815
:101340003068C005F6D55A4EA068683601280FD01F
:101350000528306810D020F001003060306820F09F
:1013600004003060A068B8B1FFF7D2FC00900FE035
:10137000306840F00100F4E740F004003060F7E727
:10138000FFF7C6FC0099411A41F28830814266D8C5
:1013900030688007F4D50EE0FFF7BAFC009007E054
:1013A000FFF7B6FC0099411A41F28830814256D8C5
:1013B00030688007F4D42FB1DBF8001021F08051A1
:1013C000CBF80010A069D0B3DAF800205146C2F380
:1013D0008102022A4AD00228484607D0C8F8600095
:1013E00000E03CE0FFF794FC04463BE04746C8F8C9
:1013F0006000FFF78DFC064605E000BFFFF788FCA4
:10140000801B02282BD828688001F7D4D4E9070173
:101410000843A16A2B4A490802EB0141626A41EA8A
:101420008211084394F82C1040EA01612048001F03
:10143000016001203866FFF76BFC044605E034E0EC
:10144000FFF766FC001B022809D828688001F7D541
:101450002BE000BFFFF75CFC001B022802D9032031
:10146000BDE8F88F28688001F4D41EE00128F7D089
:101470000868E26900F48001914214D1226A00F008
:101480003F0191420FD147F6C071626A014091421B
:1014900009D1A26A00F44031914204D1E16A00F01E
:1014A0007060884201D00120DAE70020D8E7000010
:1014B000083802400038024000004742800E474290
:1014C000007000400000FFFF70470068503050F887
:1014D000210070470068503040F82120704700001C
:1014E0004FF480710148FFF706BC00000014024071
:1014F00010B5044600688168C9040CD5C068C005F1
:1015000009D52046FFF7ECFF2068C16801F0800193
:1015100061F4C071C1602068816889040CD5C0681D
:10152000800509D52046FFF7CFFF2068C16801F08C
:10153000800161F42071C16003494FF400300860FC
:101540000120607710BD0000143C014070B504001C
:1015500002D0607F10B106E0012070BD002020772E
:10156000204600F049F8022060772168CA204862CE
:10157000216853204862204604F0A4F8FF25042681
:1015800018BB206881681B4A114081602168886807
:1015900062681043D4E904231A4310438860216829
:1015A000E068086120680169228941EA024101611D
:1015B0002068C16821F08001C160206880688006D1
:1015C00007D4204600F0C6F918B120684562667756
:1015D000C2E72068016C21F4802101642068016C5D
:1015E000A2691143016420684562012060770020F0
:1015F00070BD0000BFFF8FFF10B50068084988422A
:101600000CD1084901200860002211462920FFF76B
:10161000EDFBBDE810402920FFF7DABB10BD00004C
:10162000002800403C0E4742F8B503465A480C4695
:101630004FF4FA410068B0FBF1F0491148430090C3
:10164000187F012863D001261E770220587718687A
:101650000025002A80684FEA40605AD0002800DB4D
:10166000E570A0782278E77840EA02406278E16984
:10167000120242EA0742104394F8202040EA026036
:1016800008436169A269084361681F681143CA225F
:101690007A621F6853227A62626AFF27B2F5807FFE
:1016A0001A684FF0030C94684ED024F400749460D0
:1016B0001A68D46804F0800464F42074D4601A6852
:1016C000009CB4F1010ECDF800E05ED3D468A4070D
:1016D000F6D51062186881641868816841F4007159
:1016E00081601868816841F4005181602B4801686D
:1016F00041F40031016029480830016841F40031AB
:101700000160186847625E771D770020F8BD0220EF
:10171000F8BD002800DBE570207803F0C7FF020465
:10172000607803F0C3FF42EA0022A07803F0BEFF16
:101730000243E07842EA004294F8200003F0B6FF4A
:1017400042EA0060E1699BE724F4807494601A68BF
:10175000D46804F0800464F4C074D4601A68009CF7
:10176000B4F1010ECDF800E00FD3D468E407F6D051
:10177000D061186841641868816841F480718160A3
:101780001868816841F48051AFE7576283F81DC043
:101790001D770320F8BD00002C000020003C014014
:1017A0002DE9F0470446007F0B4601281FD04FF07B
:1017B000010984F81C9002206077DAB19878D97812
:1017C00040EA014558781978000240EA4130054363
:1017D0002168CA204862216853204862204603F0ED
:1017E00071FF0026FF274FF0040860BB1AE00220BB
:1017F000BDE8F0875878C10603D500F0EF000A3045
:101800005870D87803F052FF0204587803F04EFF66
:1018100042EA0022987803F049FF0243187842EA2E
:101820004035D5E70F480540206845602068C1680D
:1018300021F08001C1602068806880060AD42046BB
:1018400000F088F830B12068476284F81D80267760
:101850000120CDE72068476284F81D90267700209C
:10186000C6E700003FFFFF002DE9F0470446007F78
:101870000D46012827D04FF0010A84F81CA0022051
:1018800060772068002680684FEA4060F2B1002847
:1018900000DBEE70A878297840EA01476878E9789B
:1018A000000240EA014007432168CA2048622168DB
:1018B00053204862204603F005FF4FF0FF084FF029
:1018C0000409A0BB16E00220BDE8F087002800DB79
:1018D000EE70287803F0EAFE0204687803F0E6FE72
:1018E00042EA0022A87803F0E1FE0243E87842EAE7
:1018F0000047D9E7164807402068076020688168DC
:1019000021F480218160D5E90301084321688A68B8
:10191000104388602068C16821F08001C1602068A0
:10192000806880060BD4204600F014F838B1216896
:10193000C1F8248084F81D9026770120C4E721682F
:10194000C1F8248084F81DA026770020BCE70000A1
:101950007F7F7F0070B504460068C16821F0A00158
:10196000C160FFF7D5F905464FF47A7607E000BF6E
:10197000FFF7CEF9401BB04201D9032070BD2068AB
:10198000C0688006F4D5002070BD00002DE9FE433C
:10199000044603200F4684F83400606C03285AD0B4
:1019A000B7F5805F57D04FF4006600254FF0806890
:1019B000B7421CD1009501950021206803F0B5FEC7
:1019C000800121D46946204604F0D6F998BB0198DD
:1019D000400332D5B4F850000104206803F0DAFE69
:1019E00048BB0221206822E0A06B284327E01FB1FA
:1019F000A06B40F0006022E0009501950021206876
:101A000003F093FE800101D53546EDE76946204697
:101A100004F0B2F978B90198C0030ED5B4F85000BB
:101A20000104206803F0B6FE28B90021206803F005
:101A3000FEFE0028D8D00546D6E74546D4E7A06389
:101A4000A06B012558B121680C48886384F8345094
:101A50000120BDE8FE83A06B40F08050EFE7211D20
:101A6000D4E905060EC90097CDE90106206803F008
:101A70005FFE84F834500020EBE70000FF054000D3
:101A800050F8742F120E0A700268120A4A80027807
:101A90004368120642EA13224A6002790A72826897
:101AA000120E4A728268C368120242EA1362CA6066
:101AB000C268C2F303520A74C268C2F30B224A829C
:101AC000007BC0F346000875012048750020704770
:101AD000F0B5426E920F0A70426EC2F383624A7092
:101AE000426EC2F301628A70426E120CCA70B0F884
:101AF0006420120A0A7190F864204A71826E120DF5
:101B0000CA80826EC2F303420A72B0F86820C2F340
:101B1000C0324A72B0F86820C2F380328A72B0F8DC
:101B20006820C2F34032CA72B0F86820C2F30032B3
:101B30000A7300264E73426C4FF40075012462B1A3
:101B4000012A3AD0026847499163816B41F0805184
:101B5000816380F834400120F0BDB0F86820C36E86
:101B60009205120D42EA93720A61C26EC2F3C2621A
:101B70000A75C26EC2F302624A75C26EC2F3425265
:101B80008A75C26EC2F38242CA75C26EC2F3C23295
:101B90000A760A69521C42650B7E03F007039B1C00
:101BA0009A4042650B7A03F00F0704FA07F3836546
:101BB0005B0A5A43C0E917250EE090F86820C36E0F
:101BC0009206920A42EA13420A610A69521C920280
:101BD0004265C0E91652056630F86C2FC2F38032B8
:101BE00001F8192F0288C2F3C6124A70027802F077
:101BF0007F028A704268D20FCA704268C2F3417293
:101C00000A714268C2F382624A714268C2F3835227
:101C10008A714268C2F34052CA710E724268C2F3BE
:101C200000424A728288C2F3C0328A728288C2F34A
:101C30008032CA728288C2F340320A738288C2F349
:101C400000324A738288C2F381228A738288C2F387
:101C50000122CA730079C0F3460008744C74002056
:101C6000F0BD0000FF054000426C0A60826C4A60D3
:101C7000C26C8A60026DCA60426D0A61826D4A61FF
:101C8000C26D8A61006EC8610020704770B504465D
:101C9000B0F8500000250104206803F0D2FE18B10E
:101CA000A16B0143A16304E00021206803F03DFD26
:101CB0000546C5F3432070BD70B504000ED094F8FE
:101CC0003400002518B92577204600F03BF80320A2
:101CD00084F83400204600F00BF808B1012070BDF4
:101CE000A5632563012084F83400002070BD000046
:101CF000FEB50025044676200095CDE90150294621
:101D00000B460A46206803F013FD08B10120FEBD12
:101D10000B4E46F8A05F206803F01CFD01253560DE
:101D2000204604F03FF920B9204604F0C3F800280B
:101D3000EDD084F83450A16B0143A163E6E70000C5
:101D400000802542F0B587B0044614216846FEF7AE
:101D500023FB1D492068884233D11C4800240168B8
:101D600041F400610160006800F4006005901748CC
:101D70001438016841F004010160016801F00401B8
:101D80000591016841F0080101600068022500F03A
:101D9000080005904FF4F850CDE9000502AA03268B
:101DA0000C2782E8D00069460948FEF7C3FE0420EC
:101DB000CDE9000502AA694682E8D0000548FEF791
:101DC000B9FE07B0F0BD0000002C014044380240CD
:101DD00000080240000C02402DE9F04F87B09B46FE
:101DE00016460D460446FEF793FF00903DB194F869
:101DF0003400012807D0A06B40F000500DE0A06B2C
:101E000040F0006009E00027A763E16D06EB0B00DE
:101E1000884204D9A06B40F00070A06395E00320D5
:101E200084F834002068C762606C012800D0760214
:101E30004FF40071206803F0E1FCDFF890A101216C
:101E400040B12368C3F838A0A26B0243A26384F8B0
:101E500034107AE04FF0FF3001904FEA4B200290AF
:101E6000902003900220CDE9040706918846B946E8
:101E700001A9206803F043FCBBF1010F06D9022041
:101E800020633146206803F04DFD05E0C4F8308042
:101E90003146206803F05FFD30B12268C2F838A0F7
:101EA000A16B0143A1634CE0029E1EE0406B000465
:101EB00013D596B10027206803F054FC05F8010BF8
:101EC000010A05F8011B010C05F8021B000E361F64
:101ED0007F1C05F8010C082FEDD3FEF719FF0099C0
:101EE000411A109881421DD2E0B12068426B40F245
:101EF0002A310A42DAD0416BC90509D5BBF1010F7D
:101F000006D9616C032903D003F0CCFD0028C4D1AD
:101F10002068416B09071AD5C0F838A0A06B40F0C3
:101F2000080051E02168C1F838A0A06B40F00040E3
:101F3000A06384F83480C4F83090032007B0BDE873
:101F4000F08F84F83480C4F830900120F6E7416BBC
:101F5000890705D5C0F838A0A06B40F0020033E037
:101F6000416B89061CD5C0F838A0A06B40F020005A
:101F70002AE000BF03F0F6FB05F8010B010A05F8A3
:101F8000011B010C05F8021B000E05F8010C361FA1
:101F9000FEF7BEFE0099411A109881420ED268B138
:101FA0002068416B890201D5002EE3D1216840F2FF
:101FB0003A50886384F834800020BFE72168C1F874
:101FC00038A0A06B40F00040A063BAE7FF054000D6
:101FD0002DE9FF4F8DB016460D460446FEF798FEDC
:101FE0000B903DB194F83400012807D0A06B40F06D
:101FF00000500DE0A06B40F0006009E00027A763EF
:102000001098E16D3044884204D9A06B40F0007014
:10201000A0638BE0032084F834002068C762606C02
:10202000012800D076024FF40071206803F0E6FB2F
:10203000DFF864B1012140B12368C3F838B0A26B66
:102040000243A26384F8341070E04FF0FF30039035
:1020500010988946400204909020CDE90507CDE90B
:102060000771BA4603A9206803F049FB10980128BC
:1020700006D9202020633146206803F02DFD05E0BD
:10208000102020633146206803F03FFD5FEA00081E
:1020900006D02168C1F838B0A06B40EA080071E0B2
:1020A000049E27E0406B40041CD5DEB15FF00007C2
:1020B00015F8010B009015F8011B361F40EA0120AE
:1020C000009015F8021B40EA0140009015F8011C31
:1020D00040EA016000906946206803F056FB7F1CCF
:1020E000082FE5D3FEF714FE0B99411A1A98814286
:1020F00020D2F8B12068416B40F21A321142D1D09F
:10210000416BC90523D51099012920D9616C032998
:102110001DD003F0C7FCD0B12268C2F838B0A16B63
:102120000143A16384F83490C4F830A0012011B0B9
:10213000BDE8F08F2168C1F838B0A06B40EA080014
:10214000A06384F83490C4F830A00320EFE720683F
:10215000416B090705D5C0F838B0A06B40F0080006
:1021600010E0416B890705D5C0F838B0A06B40F08E
:10217000020007E0416BC90606D5C0F838B0A06B75
:1021800040F01000A063CDE740F23A51816384F83B
:1021900034900020CBE70000FF05400070B504003C
:1021A00005D00025A56294F8510010B106E0012089
:1021B00070BD84F85050204600F030F8022084F8BA
:1021C00051002068016821F040010160D4E901015B
:1021D0000843D4E903121143084361690843218B82
:1021E00001F400710843E1690843216A0843A16AC8
:1021F000084321680860A069042101EA1040616A6F
:102200000843216848602068C16921F40061C16108
:102210006565012084F85100002070BD124800B5AA
:10222000016887B041F002010160006800F002001F
:1022300005900D481430016841F480510160006838
:10224000694600F4805005903820009002200190EB
:102250000120029003200390052004900348FEF71C
:1022600069FC07B000BD00003038024000040240A5
:102270002DE9F84F044690F8500000270A9E1D46AD
:1022800092468B464FF0010901280ED0012084F8B8
:102290005000FEF73DFD804694F85100616801282A
:1022A0000CD0B1F5827F07D102E00220BDE8F88FA3
:1022B000A16809B9042801D00227C2E0BBF1000FD0
:1022C00027D0BAF1000F24D01DB394F85100042890
:1022D00002D0052084F8510000206065C4F838A0C1
:1022E000E587A587C4F830B0E586A58620646064DC
:1022F00020680168490603D4016841F0400101608B
:10230000E068B0F5006F606805D0E8B3012D46D0F5
:102310007FE0012795E008B1012D39D1206B2168BC
:102320000088C860206B801C2063E08E401EE08621
:102330002EE02068816889070FD5E18E69B1B9F177
:10234000010F0AD1216B0988C160206B801C2063BA
:10235000E08E401EE0864FF0000920688168C907C2
:102360000CD0E18F51B1C068A16B0880A06B801CBC
:10237000A063E08F401EE0874FF00109FEF7C8FC24
:10238000A0EB0800B04200E009E001D3701C50D17E
:10239000E08E0028CDD1E08F0028CAD13FE0206B2D
:1023A000216800780873206B401C2063E08E401E7B
:1023B000E0862EE02068816889070FD5E18E69B13B
:1023C000B9F1010F0AD1216B09780173206B401C10
:1023D0002063E08E401EE0864FF00009206881688F
:1023E000C9070CD0E18F51B1C068A16B0870A06B18
:1023F000401CA063E08F401EE0874FF00109FEF70C
:1024000087FCA0EB0800B04202D3701C01D010E0A2
:102410007EB1E08E0028CDD1E08F0028CAD142469F
:102420003146204603F0AAFE28B10127202060652E
:1024300007E0032705E0A06818B92068C168806834
:102440000090012084F85100002084F850003846A4
:102450002CE770B515460E46040003D094F84900E9
:1024600010B107E0012070BD002084F8480020462C
:1024700000F01AF804F108012068FEF797FA3146D7
:10248000A2682068FEF7BCFAD4E901022946236B52
:10249000FEF76CFAA168206850F8212042F0010292
:1024A00040F82120002070BDFEF7F0BA10B5401EA4
:1024B000B0F1807F01D3012010BD4FF0E0246061B6
:1024C0000F21601704F030F90020A061072020617F
:1024D000002010BD704710F8391F4078084370473E
:1024E00070B5026804461068D168536910F00F0F88
:1024F00052D003F0010501F490762E435FD0C2075D
:1025000005D0CA0503D5E26B42F00102E26342073F
:1025100005D5DA0703D0E26B42F00202E2638207DC
:1025200005D5DA0703D0E26B42F00402E26302074A
:1025300007D501F020022A4303D0E26B42F00802E3
:10254000E263E26B002A33D0800604D5880602D508
:10255000204603F00BFF20684069E16BC0F3801058
:10256000090700D428B3204603F0F2FE2068416931
:1025700049061AD5416921F040014161606BA0B163
:102580001B490165606BFEF75DFA002810D0606B97
:10259000016DBDE870400847830610D58B060ED547
:1025A0002046BDE8704003F0E1BE2046FFF792FFF1
:1025B00070BD2046FFF78EFF0020E06370BD03066C
:1025C00006D50B0604D52046BDE8704003F0AEBF2B
:1025D0004006F3D54806F1D5D168204621F04001E8
:1025E000D160202184F8391000F0CEF870BD0000D1
:1025F0004163000870B5040004D094F83900002548
:1026000010B106E0012070BD84F83850204600F07B
:1026100023F8242084F839002068C16821F400518F
:10262000C160204603F0EEFE2068016921F490416C
:1026300001612068416921F02A0141612068C16877
:1026400041F40051C160E563202084F8390084F82A
:102650003A00002070BD000010B586B00446142179
:102660006846FDF799FE18492068884229D1174825
:10267000016841F010010160006800F01000059051
:1026800012481438016841F0010101600068694690
:1026900000F0010005904FF4C0600090022001900E
:1026A0000120029003200390072004900848FEF7C1
:1026B00041FA002211462520FEF798FB2520FEF75F
:1026C00087FB06B010BD00000010014044380240F6
:1026D0000000024090F83A30202B22D1F9B1F2B13B
:1026E00090F83830012B1CD081628285C285002190
:1026F000C163222280F83A2080F838100168CA6845
:1027000042F48072CA6001684A6942F001024A617B
:102710000068C16841F02001C160002070470120BD
:10272000704702207047000030B5144988420DD12F
:10273000134881880A0409D400F102024C0412787B
:102740004FF000030AD50A2A01D0838030BD41F43E
:102750000041818001220270417030BD0D2A09D0F4
:10276000C1F30D04074D491C89B22A558180C72940
:10277000EBD830BD41F48041818030BD241300206E
:1027800034000020B41300207047000070B50B49DE
:102790000646002408884D8821464543204602F01D
:1027A00067FC02F0CFFDB0B24FF0D84103E000BFAC
:1027B000A1F88000641CAC42FAD370BD7C140020E8
:1027C0002DE9F04F2B492C260A46887192884FF448
:1027D000305A4FF4285B4FF4487541F6631E2B279F
:1027E0004FF02A0C4FF0F00845F210594FF4A07446
:1027F0004FF4F073B8B10C80A1F802804A4532D191
:10280000A1F808A0A1F80AB0380288810D804B8099
:10281000A2F5A640103801D10B804C80BDE8F04FE6
:10282000002002F065BBA1F800804C804A4507D12A
:10283000A1F808A0A1F80AB04FF42C50888105E057
:1028400072450E8105D14F81A1F80CC00B804D80DF
:1028500002E0A1F80AC08F81A2F5A6401038DDD1B0
:102860000C804B80DAE70E81A1F80AC072458F8197
:10287000CCD0CDE77C1400202DE9F0419046314AC0
:102880000D460446060A918810462F0A4089A1F594
:10289000AA43103B0FD0A1F5C853633B24D002F0EC
:1028A00044FD304602F035FDE0B202F032FD908981
:1028B00002F03BFD36E002F038FD304602F029FD23
:1028C0005089401C80B202F030FDE0B202F021FDE0
:1028D000908902F02AFD384602F01BFD9089401CC9
:1028E00080B202F022FD20E0917919B91188091B0C
:1028F000491E8CB202F019FD260A304602F009FD8D
:10290000E0B202F006FD304602F003FDE0B202F054
:1029100000FD908902F009FD384602F0FAFCE8B2A9
:1029200002F0F7FC384602F0F4FCE8B202F0F1FCE9
:102930004FF0D840118920F87E1FA0F80280BDE832
:10294000F08100007C1400202DE9F05F322004F0BB
:1029500037FBD32002F0E9FC02F098FAFE4CA0808D
:1029600002F094FAA08002F091FA4FF6FF7A0AEA98
:102970000020A08002F08AFAA18849F2413B084376
:10298000A08045F2103745F2105641F6631847F221
:10299000897558457CD0042002F0C7FC02F076FA15
:1029A000A08002F073FAA08002F070FA0AEA002018
:1029B0005246A08002F06AFAA1880843A0F50541BA
:1029C000A080523960D0A84262D0D42002F0ADFC81
:1029D00002F05CFAA08002F059FAA08002F056FAE8
:1029E00002EA00209146A08002F050FAA188084334
:1029F000A080B8424CD055214FF4704002F0ACFC9E
:102A0000AA214FF2010002F0A7FC52214FF202006E
:102A100002F0A2FC08214FF2030002F09DFC01210C
:102A20004FF2040002F098FC4FF4454002F07DFCA8
:102A300002F02CFA09EA0020A0804CF2015002F0CA
:102A400074FC02F023FAA1880843A080052004F05A
:102A5000B7FAA088B0F5004F7ED0B04218D0A120C0
:102A600002F063FC02F012FAA08002F00FFA09EA09
:102A70000020A08002F00AFAA1880843A0F5AE4128
:102A8000A080613902D003E0A58001E0A4F80480B1
:102A9000A188B2A003F024FEA088D94648457DD184
:102AA000CF2002F042FC002002F033FCC12002F0F3
:102AB00030FC302002F02DFCED2002F036FC6420CA
:102AC00002F027FC032002F024FC122002F021FC7B
:102AD000812002F01EFCE82002F027FC852002F095
:102AE00018FC102002F015FC7A2002F012FCCB201A
:102AF00002F01BFC392002F00CFC2C2002F009FC37
:102B0000002002F006FC342002F003FC022002F058
:102B100000FCF72002F009FC202002F0FAFBEA207A
:102B200002F003FC002002F0F4FB002002F0F1FBB5
:102B3000C02002F0FAFB1B2002F0EBFBC12002F0E8
:102B4000F4FB012002F0E5FBC52002F0EEFB302093
:102B500002F0DFFB302000E0B8E002F0DAFBC72033
:102B600002F0E3FBB72002F0D4FB362002F0DDFBDD
:102B7000482002F0CEFB3A2002F0D7FB552002F0AD
:102B8000C8FBB12002F0D1FB002002F0C2FB1A20EA
:102B900002F0BFFBB62002F0C8FB00E098E00A207C
:102BA00002F0B7FBA22002F0B4FBF22002F0BDFB62
:102BB000002002F0AEFB262002F0B7FB012002F05D
:102BC000A8FBE02002F0B1FB0F2002F0A2FB2A20BC
:102BD00002F09FFB282002F09CFB082002F099FBEA
:102BE0000E2002F096FB082002F093FB542002F026
:102BF00090FBA92002F08DFB432002F08AFB0A2003
:102C000002F087FB0F2002F084FB002002F081FB22
:102C1000002002F07EFB002002F07BFB002002F08F
:102C200078FBE12002F081FB002002F072FB15200E
:102C300002F06FFB172002F06CFB072002F069FB2B
:102C4000112002F066FB062002F063FB2B2002F04D
:102C500060FB562002F05DFB3C2002F05AFB052091
:102C600002F057FB102002F054FB0F2002F051FB42
:102C70003F2002F04EFB3F2002F04BFB0F2002F002
:102C800048FB2B2002F051FB002002F042FB002009
:102C900002F03FFB012002F03CFB3F2002F039FB39
:102CA0002A2002F042FB002002F033FB002002F059
:102CB00030FB002002F02DFBEF2002F02AFB112058
:102CC00002F033FB782004F07BF9E0E0A680DFE639
:102CD000A8427CD1112002F028FB782004F070F982
:102CE000362002F022FB002002F013FB3A2002F013
:102CF0001CFB052002F00DFBB22002F016FB0C209D
:102D000002F007FB0C2002F004FB002002F001FBA4
:102D1000332002F0FEFA332002F0FBFAB72002F073
:102D200004FB352002F0F5FABB2002F0FEFA322057
:102D300002F0EFFAC02002F0F8FA0C2002F0E9FAF3
:102D4000C22002F0F2FA012002F0E3FAC32002F0FE
:102D5000ECFA10200AE000007C140020204C4344D0
:102D60002049443A25780D0A0000000002F0D1FA0B
:102D7000C42002F0DAFA202002F0CBFAC62002F0DA
:102D8000D4FA0F2002F0C5FAD02002F0CEFAA42027
:102D900002F0BFFAA12002F0BCFAE02002F0C5FA6E
:102DA000D02002F0B6FA002002F0B3FA022002F0BE
:102DB000B0FA072002F0ADFA0A2002F0AAFA2820A1
:102DC00002F0A7FA322002F0A4FA442000E061E009
:102DD00002F09FFA422002F09CFA062002F099FAD3
:102DE0000E2002F096FA122002F093FA142002F05C
:102DF00090FA172002F08DFAE12002F096FAD02026
:102E000002F087FA002002F084FA022002F081FA30
:102E1000072002F07EFA0A2002F07BFA282002F056
:102E200078FA312002F075FA542002F072FA472045
:102E300002F06FFA0E2002F06CFA1C2002F069FA20
:102E4000172002F066FA1B2002F063FA1E2002F03F
:102E500060FA2A2002F069FA002002F05AFA0020F3
:102E600002F057FA002002F054FAEF2002F051FA73
:102E70002B2002F05AFA002002F04BFA002002F058
:102E800048FA012002F045FA3F2002F042FA2920D8
:102E900001F0FEBEB8427CD1ED2002F046FA0120DE
:102EA00002F037FAFE2002F034FAEE2002F03DFA8A
:102EB000DE2002F02EFA212002F02BFAF12002F09F
:102EC00034FA012002F025FADF2002F02EFA102059
:102ED00002F01FFAC42002F028FA8F2002F019FA3B
:102EE000C62002F022FA002002F013FAE22002F0DB
:102EF00010FAE22002F00DFAE22002F00AFABF20F6
:102F000002F013FAAA2002F004FAB02002F00DFA3F
:102F10000D2002F0FEF9002002F0FBF90D2002F076
:102F2000F8F9002002F0F5F9112002F0F2F9002082
:102F300002F0EFF9192002F0ECF9002002F0E9F9B3
:102F4000212002F0E6F9002002F0E3F92D2002F042
:102F5000E0F9002002F0DDF93D2002F0DAF900206E
:102F600002F0D7F95D2002F0D4F9002002F0D1F987
:102F70005D2002F0CEF9002002F0CBF9B12002F082
:102F8000D4F9802002F0C5F9002002F0C2F98B20AC
:102F900000E0FCE302F0BDF9002002F0BAF996204F
:102FA00002F0B7F9002002F0B4F9B22002F0BDF946
:102FB000002002F0AEF9002002F0ABF9022002F08E
:102FC000A8F9002002F0A5F9032002F0A2F90020E0
:102FD00002F09FF9B32002F0A8F9002002F099F95D
:102FE000002002F096F9002002F093F9002002F090
:102FF00090F9002002F08DF9002002F08AF90020FB
:1030000002F087F9002002F084F9002002F081F933
:10301000002002F07EF9002002F07BF9002002F08F
:1030200078F9002002F075F9002002F072F9002012
:1030300002F06FF9002002F06CF9002002F069F94B
:10304000002002F066F9002002F063F9002002F08F
:1030500060F9002002F05DF9002002F05AF900202A
:1030600002F057F9002002F054F9B42002F05DF9A3
:103070008B2002F04EF9002002F04BF9962002F06E
:1030800048F9002002F045F9A12002F042F90020A1
:1030900002F03FF9B52002F048F9022002F039F9B8
:1030A000002002F036F9032002F033F9002002F08C
:1030B00030F9042002F02DF9002002F02AF9B620A0
:1030C00002F033F9002002F024F9002002F021F987
:1030D000B72002F02AF9002002F01BF9002002F0CC
:1030E00018F93F2002F015F9002002F012F95E20D5
:1030F00002F00FF9002002F00CF9642002F009F947
:10310000002002F006F98C2002F003F9002002F002
:1031100000F9AC2002F0FDF8002002F0FAF8DC2003
:1031200002F0F7F8002002F0F4F8702002F0F1F855
:10313000002002F0EEF8902002F0EBF8002002F000
:10314000E8F8EB2002F0E5F8002002F0E2F8DC20DD
:1031500002F0DFF8002002F0DCF8B82002F0E5F819
:10316000002002F0D6F8002002F0D3F8002002F090
:10317000D0F8002002F0CDF8002002F0CAF80020BC
:1031800002F0C7F8002002F0C4F8002002F0C1F8F5
:10319000BA2002F0CAF8242002F0BBF8002002F0A6
:1031A000B8F8002002F0B5F8002002F0B2F8C12013
:1031B00002F0BBF8202002F0ACF8002002F0A9F8E1
:1031C000542002F0A6F8002002F0A3F8FF2002F03D
:1031D000A0F8002002F09DF8C22002F0A6F80A2014
:1031E00002F097F8002002F094F8042002F091F821
:1031F000002002F08EF8C32002F097F83C2002F085
:1032000088F8002002F085F83A2002F082F80020C9
:1032100002F07FF8392002F07CF8002002F079F803
:10322000372002F076F8002002F073F83C2002F01C
:1032300070F8002002F06DF8362002F06AF80020E5
:1032400002F067F8322002F064F8002002F061F822
:103250002F2002F05EF8002002F05BF82C2002F034
:1032600058F8002002F055F8292002F052F800200A
:1032700002F04FF8262002F04CF8002002F049F846
:10328000242002F046F8002002F043F8242002F047
:1032900040F8002002F03DF8232002F03AF8002028
:1032A00002F037F83C2002F034F8002002F031F848
:1032B000362002F02EF8002002F02BF8322002F027
:1032C00028F8002002F025F82F2002F022F8002034
:1032D00002F01FF82C2002F01CF8002002F019F870
:1032E000292002F016F8002002F013F8262002F040
:1032F00010F8002002F00DF8242002F00AF8002057
:1033000002F007F8242002F004F8002002F001F88F
:10331000232001F0FEFF002001F0FBFFC42002F09B
:1033200004F8622001F0F5FF002001F0F2FF052013
:1033300001F0EFFF002001F0ECFF842001F0E9FF35
:10334000002001F0E6FFF02001F0E3FF002001F093
:10335000E0FF182001F0DDFF002001F0DAFFA420DB
:1033600001F0D7FF002001F0D4FF182001F0D1FFB9
:10337000002001F0CEFF502001F0CBFF002001F033
:10338000C8FF0C2001F0C5FF002001F0C2FF17208C
:1033900001F0BFFF002001F0BCFF952001F0B9FF54
:1033A000002001F0B6FFF32001F0B3FF002001F090
:1033B000B0FFE62001F0ADFF002001F0AAFFC5201C
:1033C00001F0B3FF322001F0A4FF002001F0A1FFC3
:1033D000442001F09EFF002001F09BFF652001F0DA
:1033E00098FF002001F095FF762001F092FF002069
:1033F00001F08FFF882001F08CFF002001F089FF91
:10340000C62001F092FF202001F083FF002001F090
:1034100080FF172001F07DFF002001F07AFF0120DE
:1034200001F077FF002001F074FFC72001F07DFF5D
:10343000002001F06EFF002001F06BFF002001F082
:1034400068FF002001F065FFC82001F06EFF00203A
:1034500001F05FFF002001F05CFF002001F059FF48
:10346000002001F056FFC92001F05FFF002001F0AD
:1034700050FF002001F04DFF002001F04AFF002026
:1034800001F047FF002001F044FF002001F041FF60
:10349000002001F03EFF002001F03BFF002001F082
:1034A00038FF002001F035FF002001F032FF00203E
:1034B00001F02FFF002001F02CFF002001F029FF78
:1034C000002001F026FF002001F023FFE02001F0A2
:1034D0002CFF162001F01DFF002001F01AFF1C2018
:1034E00001F017FF002001F014FF212001F011FF6F
:1034F000002001F00EFF362001F00BFF002001F04C
:1035000008FF462001F005FF002001F002FF5220D5
:1035100001F0FFFE002001F0FCFE642001F0F9FE46
:10352000002001F0F6FE7A2001F0F3FE002001F009
:10353000F0FE8B2001F0EDFE002001F0EAFE992064
:1035400001F0E7FE002001F0E4FEA82001F0E1FE1A
:10355000002001F0DEFEB92001F0DBFE002001F0CA
:10356000D8FEC42001F0D5FE002001F0D2FECA2012
:1035700001F0CFFE002001F0CCFED22001F0C9FE08
:10358000002001F0C6FED92001F0C3FE002001F0AA
:10359000C0FEE02001F0BDFE002001F0BAFEF320E5
:1035A00001F0B7FE002001F0B4FEE12001F0BDFE05
:1035B000162001F0AEFE002001F0ABFE1C2001F051
:1035C000A8FE002001F0A5FE222001F0A2FE0020AE
:1035D00001F09FFE362001F09CFE002001F099FED4
:1035E000452001F096FE002001F093FE522001F0EC
:1035F00090FE002001F08DFE642001F08AFE002084
:1036000001F087FE7A2001F084FE002001F081FEA7
:103610008B2001F07EFE002001F07BFE992001F05E
:1036200078FE002001F075FEA82001F072FE002057
:1036300001F06FFEB92001F06CFE002001F069FE80
:10364000C42001F066FE002001F063FECA2001F0F4
:1036500060FE002001F05DFED22001F05AFE002045
:1036600001F057FED82001F054FE002001F051FE79
:10367000E02001F04EFE002001F04BFEF32001F0AF
:1036800048FE002001F045FEE22001F04EFE05203C
:1036900001F03FFE002001F03CFE0B2001F039FE5E
:1036A000002001F036FE1B2001F033FE002001F067
:1036B00030FE342001F02DFE002001F02AFE4420CF
:1036C00001F027FE002001F024FE4F2001F021FE32
:1036D000002001F01EFE612001F01BFE002001F021
:1036E00018FE792001F015FE002001F012FE88205E
:1036F00001F00FFE002001F00CFE972001F009FE02
:10370000002001F006FEA62001F003FE002001F0DB
:1037100000FEB72001F0FDFD002001F0FAFDC220FF
:1037200001F0F7FD002001F0F4FDC72001F0F1FDEC
:10373000002001F0EEFDD12001F0EBFD002001F0B2
:10374000E8FDD62001F0E5FD002001F0E2FDDD20DE
:1037500001F0DFFD002001F0DCFDF32001F0D9FDD8
:10376000002001F0D6FDE32001F0DFFD052001F08F
:10377000D0FD002001F0CDFD0A2001F0CAFD00209F
:1037800001F0C7FD1C2001F0C4FD002000E0FDE2B7
:1037900001F0BFFD332001F0BCFD002001F0B9FDB8
:1037A000442001F0B6FD002001F0B3FD502001F0EF
:1037B000B0FD002001F0ADFD622001F0AAFD002067
:1037C00001F0A7FD782001F0A4FD002001F0A1FD8B
:1037D000882001F09EFD002001F09BFD972001F064
:1037E00098FD002001F095FDA62001F092FD00203B
:1037F00001F08FFDB72001F08CFD002001F089FD64
:10380000C22001F086FD002001F083FDC72001F0F9
:1038100080FD002001F07DFDD12001F07AFD002027
:1038200001F077FDD52001F074FD002001F071FD5D
:10383000DD2001F06EFD002001F06BFDF32001F0B2
:1038400068FD002001F065FDE42001F06EFD01201F
:1038500001F05FFD002001F05CFD012001F059FD49
:10386000002001F056FD022001F053FD002001F080
:1038700050FD2A2001F04DFD002001F04AFD3C20C2
:1038800001F047FD002001F044FD4B2001F041FD17
:10389000002001F03EFD5D2001F03BFD002001F025
:1038A00038FD742001F035FD002001F032FD842048
:1038B00001F02FFD002001F02CFD932001F029FDE7
:1038C000002001F026FDA22001F023FD002001F0E0
:1038D00020FDB32001F01DFD002001F01AFDBE20E7
:1038E00001F017FD002001F014FDC42001F011FDCE
:1038F000002001F00EFDCD2001F00BFD002001F0B5
:1039000008FDD32001F005FD002001F002FDDD20BF
:1039100001F0FFFC002001F0FCFCF32001F0F9FCB9
:10392000002001F0F6FCE52001F0FFFC002001F092
:10393000F0FC002001F0EDFC002001F0EAFC00208A
:1039400001F0E7FC022001F0E4FC002001F0E1FCC2
:10395000292001F0DEFC002001F0DBFC3C2001F01E
:10396000D8FC002001F0D5FC4B2001F0D2FC002057
:1039700001F0CFFC5D2001F0CCFC002001F0C9FC7F
:10398000742001F0C6FC002001F0C3FC842001F08B
:10399000C0FC002001F0BDFC932001F0BAFC002027
:1039A00001F0B7FCA22001F0B4FC002001F0B1FC52
:1039B000B32001F0AEFC002001F0ABFCBE2001F012
:1039C000A8FC002001F0A5FCC42001F0A2FC00200E
:1039D00001F09FFCCD2001F09CFC002001F099FC3F
:1039E000D32001F096FC002001F093FCDC2001F0D4
:1039F00090FC002001F08DFCF32001F08AFC0020F7
:103A000001F087FCE62001F090FC112001F081FC20
:103A1000002001F07EFC342001F07BFC002001F04E
:103A200078FC562001F075FC002001F072FC762035
:103A300001F06FFC002001F06CFC772001F069FCC4
:103A4000002001F066FC662001F063FC002001F01C
:103A500060FC882001F05DFC002001F05AFC9920F8
:103A600001F057FC002001F054FCBB2001F051FC98
:103A7000002001F04EFC992001F04BFC002001F0E9
:103A800048FC662001F045FC002001F042FC552076
:103A900001F03FFC002001F03CFC552001F039FC16
:103AA000002001F036FC452001F033FC002001F03D
:103AB00030FC432001F02DFC002001F02AFC4420C2
:103AC00001F027FC002001F024FCE72001F02DFC90
:103AD000322001F01EFC002001F01BFC552001F0FB
:103AE00018FC002001F015FC762001F012FC0020EB
:103AF00001F00FFC662001F00CFC002001F009FC35
:103B0000672001F006FC002001F003FC672001F0B3
:103B100000FC002001F0FDFB872001F0FAFB0020F3
:103B200001F0F7FB992001F0F4FB002001F0F1FB1C
:103B3000BB2001F0EEFB002001F0EBFB992001F02F
:103B4000E8FB002001F0E5FB772001F0E2FB00201C
:103B500001F0DFFB442001F0DCFB002001F0D9FB89
:103B6000562001F0D6FB002001F0D3FB232001F00A
:103B7000D0FB002001F0CDFB332001F0CAFB002078
:103B800001F0C7FB452001F0C4FB002001F0C1FBA0
:103B9000E82001F0CAFB002001F0BBFB002001F08F
:103BA000B8FB992001F0B5FB002001F0B2FB8720A3
:103BB00001F0AFFB002001F0ACFB882001F0A9FB75
:103BC000002001F0A6FB772001F0A3FB002001F00C
:103BD000A0FB662001F09DFB002001F09AFB8820ED
:103BE00001F097FB002001F094FBAA2001F091FB6B
:103BF000002001F08EFBBB2001F08BFB002001F0C8
:103C000088FB992001F085FB002001F082FB6620F3
:103C100001F07FFB002001F07CFB552001F079FBD7
:103C2000002001F076FB552001F073FB002001F02D
:103C300070FB442001F06DFB002001F06AFB442082
:103C400001F067FB002001F064FB552001F061FBEF
:103C5000002001F05EFBE92001F067FBAA2001F0E3
:103C600058FB002001F055FB002001F052FB002022
:103C700001F04FFB002001F058FBAA2001F049FBA6
:103C8000CF2001F052FB002001F043FB002001F0A7
:103C900040FB002001F03DFB002001F03AFB00203A
:103CA00001F037FB002001F034FB002001F031FB74
:103CB000002001F02EFB002001F02BFB002001F082
:103CC00028FB002001F025FB002001F022FB002052
:103CD00001F01FFB002001F01CFB002001F019FB8C
:103CE000002001F016FB002001F013FBF02001F092
:103CF0001CFB002001F00DFB502001F00AFB00200E
:103D000001F007FB002001F004FB002001F001FBA3
:103D1000F32001F00AFB002001F0FBFAF92001F08A
:103D200004FB062001F0F5FA102001F0F2FA292038
:103D300001F0EFFA002001F0ECFA3A2001F0F5FA78
:103D4000552001F0E6FA112001F0EFFA642003F0AB
:103D500037F9292001F0E9FA352001F0E6FA0020D0
:103D600001F0D7FA512001F0E0FAFF2001F0D1FA7A
:103D7000532001F0DAFA2C2001F0CBFA552001F0A3
:103D8000D4FA822001F0C5FA2C20FDE3B0427DD1A7
:103D900055214FF4704001F0DFFAAA214FF20100E3
:103DA00001F0DAFA52214FF2020001F0D5FA4FF297
:103DB000030B0821584601F0CFFA4FF2040301210A
:103DC000184601F0C9FA0D214FF4304001F0C4FA51
:103DD0000D214BF2010001F0BFFA0D214BF2020060
:103DE00001F0BAFA34214FF4364001F0B5FA34212B
:103DF0004BF2016001F0B0FA34214BF2026001F0A5
:103E0000ABFA0D214FF4314001F0A6FA0D214BF22F
:103E1000011001F0A1FA0D214BF2021001F09CFA01
:103E200034214FF4374001F097FA34214BF20170FE
:103E300001F092FA34214BF2027001F08DFA002168
:103E40004FF4324001F088FA00214BF2012001F0DA
:103E500083FA00214BF2022001F07EFA24214FF474
:103E6000384001F079FA24214BF6010001F074FA90
:103E700024214BF6020001F06FFA01214FF43F407C
:103E800001F06AFA0F214FF4334000E0FEE301F045
:103E900063FA0F214BF2013001F05EFA0F214BF271
:103EA000023001F059FA34214FF4394001F054FA4C
:103EB00034214BF6011001F04FFA34214BF6021079
:103EC00001F04AFA08214FF4354001F045FA082183
:103ED0004BF2015001F040FA08214BF2025001F080
:103EE0003BFA03214FF4424001F036FA24214FF40B
:103EF0003A4001F031FA24214BF6012001F02CFA6E
:103F000024214BF6022001F027FA00214FF43C4017
:103F100001F022FA78214BF6014001F01DFA002150
:103F20004BF6024001F018FA00214FF43D4001F039
:103F300013FA78214BF6015001F00EFA00214BF6EE
:103F4000025001F009FA00214FF43E4001F004FA5A
:103F500064214BF6016001F0FFF900214FF451405C
:103F600001F0FAF933214DF2011001F0F5F90021C9
:103F70004DF2021001F0F0F934214DF2031001F07E
:103F8000EBF900214DF2041001F0E6F93A214DF26F
:103F9000051001F0E1F900214DF2061001F0DCF905
:103FA0004A214DF2071001F0D7F900214DF2081017
:103FB00001F0D2F95C214DF2091001F0CDF9002198
:103FC0004DF20A1001F0C8F981214DF20B1001F0F9
:103FD000C3F900214DF20C1001F0BEF9A6214DF2FB
:103FE0000D1001F0B9F900214DF20E1001F0B4F9F5
:103FF000E5214DF20F1001F0AFF901214DF2101043
:1040000001F0AAF913214DF2111001F0A5F90121D7
:104010004DF2121001F0A0F954214DF2131001F0ED
:104020009BF901214DF2141001F096F982214DF215
:10403000151001F091F901214DF2161001F08CF9E3
:10404000CA214DF2171001F087F902214DF2181024
:1040500001F082F900214DF2191001F07DF90221E1
:104060004DF21A1001F078F901214DF21B1001F008
:1040700073F902214DF21C1001F06EF934214DF25A
:104080001D1001F069F902214DF21E1001F064F9D2
:1040900067214DF21F1001F05FF902214DF220104F
:1040A00001F05AF984214DF2211001F055F9022155
:1040B0004DF2221001F050F9A4214DF2231001F02D
:1040C0004BF902214DF2241001F046F9B7214DF2CF
:1040D000251001F041F902214DF2261001F03CF9C2
:1040E000CF214DF2271001F037F902214DF22810AF
:1040F00001F032F9DE214DF2291001F02DF90221F3
:104100004DF22A1001F028F9F2214DF22B1001F0A6
:1041100023F902214DF22C1001F01EF9FE214DF27F
:104120002D1001F019F903214DF22E1001F014F9B0
:1041300010214DF22F1001F00FF903214DF2301034
:1041400001F00AF933214DF2311001F005F9032194
:104150004DF2321001F000F96D214DF2331001F0F3
:10416000FBF800214FF4524001F0F6F833214DF2F4
:10417000012001F0F1F800214DF2022001F0ECF8ED
:1041800034214DF2032001F0E7F800214DF2042024
:1041900001F0E2F83A214DF2052001F0DDF80021AE
:1041A0004DF2062001F0D8F84A214DF2072001F027
:1041B000D3F800214DF2082001F0CEF85C214DF239
:1041C000092001F0C9F800214DF20A2001F0C4F8DD
:1041D00081214DF20B2001F0BFF800214DF20C209F
:1041E00001F0BAF8A6214DF20D2001F0B5F800213A
:1041F0004DF20E2001F0B0F8E5214DF20F2001F054
:10420000ABF801214DF2102001F0A6F813214DF278
:10421000112001F0A1F801214DF2122001F09CF8CB
:1042200054214DF2132001F097F801214DF2142092
:1042300001F092F882214DF2152001F08DF8012154
:104240004DF2162001F088F8CA214DF2172001F036
:1042500083F802214DF2182001F07EF800214DF282
:10426000192001F079F802214DF21A2001F074F8BA
:1042700001214DF21B2001F06FF802214DF21C20AC
:1042800001F06AF834214DF21D2001F065F8022199
:104290004DF21E2001F060F867214DF21F2001F061
:1042A0005BF802214DF2202001F056F884214DF2F6
:1042B000212001F051F802214DF2222001F04CF8AA
:1042C000A4214DF2232001F047F802214DF22420D1
:1042D00001F042F8B7214DF2252001F03DF802210E
:1042E0004DF2262001F038F8CF214DF2272001F0C1
:1042F00033F802214DF2282001F02EF8DE214DF294
:10430000292001F029F802214DF22A2001F024F899
:10431000F2214DF22B2001F01FF802214DF22C204A
:1043200001F01AF8FE214DF22D2001F015F80321BD
:104330004DF22E2001F010F810214DF22F2001F047
:104340000BF803214DF2302001F006F833214DF235
:10435000312001F001F803214DF2322000F0FCFF82
:104360006D214DF2332000F0F7FF00214FF4534050
:1043700000F0F2FF33214DF2013000F0EDFF00219B
:104380004DF2023000F0E8FF34214DF2033000F02E
:10439000E3FF00214DF2043000F0DEFF3A214DF240
:1043A000053000F0D9FF00214DF2063000F0D4FFB7
:1043B0004A214DF2073000F0CFFF00214DF20830C6
:1043C00000F0CAFF5C214DF2093000F0C5FF00216A
:1043D0004DF20A3000F0C0FF81214DF20B3000F0A9
:1043E000BBFF00214DF20C3000F0B6FFA6214DF2CC
:1043F0000D3000F0B1FF00214DF20E3000F0ACFFA7
:10440000E5214DF20F3000F0A7FF01214DF21030F1
:1044100000F0A2FF13214DF2113000F09DFF0121A9
:104420004DF2123000F098FF54214DF2133000F09D
:1044300093FF01214DF2143000F08EFF82214DF2E6
:10444000153000F089FF01214DF2163000F084FF95
:10445000CA214DF2173000F07FFF02214DF21830D3
:1044600000F07AFF00214DF2193000F075FF0221B3
:104470004DF21A3000F070FF01214DF21B3000F0B8
:104480006BFF02214DF21C3000F066FF34214DF22B
:104490001D3000F061FF02214DF21E3000F05CFF84
:1044A00067214DF21F3000F057FF02214DF22030FE
:1044B00000F052FF84214DF2213000F04DFF022127
:1044C0004DF2223000F048FFA4214DF2233000F0DD
:1044D00043FF02214DF2243000F03EFFB7214DF2A0
:1044E000253000F039FF02214DF2263000F034FF74
:1044F000CF214DF2273000F02FFF02214DF228305E
:1045000000F02AFFDE214DF2293000F025FF0221C4
:104510004DF22A3000F020FFF2214DF22B3000F056
:104520001BFF02214DF22C3000F016FFFE214DF250
:104530002D3000F011FF03214DF22E3000F00CFF62
:1045400010214DF22F3000F007FF03214DF23030E3
:1045500000F002FF33214DF2313000F0FDFE032167
:104560004DF2323000F0F8FE6D214DF2333000F0A4
:10457000F3FE00214FF4544000F0EEFE33214DF2E3
:10458000014000F0E9FE00E082E300214DF202402C
:1045900000F0E2FE34214DF2034000F0DDFE002188
:1045A0004DF2044000F0D8FE3A214DF2054000F0F3
:1045B000D3FE00214DF2064000F0CEFE4A214DF21E
:1045C000074000F0C9FE00214DF2084000F0C4FE93
:1045D0005C214DF2094000F0BFFE00214DF20A407F
:1045E00000F0BAFE81214DF20B4000F0B5FE002133
:1045F0004DF20C4000F0B0FEA6214DF20D4000F04F
:10460000ABFE00214DF20E4000F0A6FEE5214DF27A
:104610000F4000F0A1FE01214DF2104000F09CFE81
:1046200013214DF2114000F097FE01214DF212408E
:1046300000F092FE54214DF2134000F08DFE012156
:104640004DF2144000F088FE82214DF2154000F03A
:1046500083FE01214DF2164000F07EFECA214DF28C
:10466000174000F079FE02214DF2184000F074FE70
:1046700000214DF2194000F06FFE02214DF21A4068
:1046800000F06AFE01214DF21B4000E003E300F060
:1046900063FE02214DF21C4000F05EFE34214DF21B
:1046A0001D4000F059FE02214DF21E4000F054FE64
:1046B00067214DF21F4000F04FFE02214DF22040D5
:1046C00000F04AFE84214DF2214000F045FE022117
:1046D0004DF2224000F040FEA4214DF2234000F0B4
:1046E0003BFE02214DF2244000F036FEB7214DF290
:1046F000254000F031FE02214DF2264000F02CFE54
:10470000CF214DF2274000F027FE02214DF2284034
:1047100000F022FEDE214DF2294000F01DFE0221B4
:104720004DF22A4000F018FEF2214DF22B4000F02D
:1047300013FE02214DF22C4000F00EFEFE214DF240
:104740002D4000F009FE03214DF22E4000F004FE42
:1047500010214DF22F4000F0FFFD03214DF23040BB
:1047600000F0FAFD33214DF2314000F0F5FD032158
:104770004DF2324000F0F0FD6D214DF2334000F07B
:10478000EBFD00214FF4554000F0E6FD33214DF2E2
:10479000015000F0E1FD00214DF2025000F0DCFD7F
:1047A00034214DF2035000F0D7FD00214DF20450AA
:1047B00000F0D2FD3A214DF2055000F0CDFD002170
:1047C0004DF2065000F0C8FD4A214DF2075000F0AE
:1047D000C3FD00214DF2085000F0BEFD5C214DF2FA
:1047E000095000F0B9FD00214DF20A5000F0B4FD6F
:1047F00081214DF20B5000F0AFFD00214DF20C5025
:1048000000F0AAFDA6214DF20D5000F0A5FD0021FB
:104810004DF20E5000F0A0FDE5214DF20F5000F0DA
:104820009BFD01214DF2105000F096FD13214DF239
:10483000115000F091FD01214DF2125000F08CFD5D
:1048400054214DF2135000F087FD01214DF2145018
:1048500000F082FD82214DF2155000F07DFD012116
:104860004DF2165000F078FDCA214DF2175000F0BD
:1048700073FD02214DF2185000F06EFD00214DF243
:10488000195000F069FD02214DF21A5000F064FD4C
:1048900001214DF21B5000F05FFD02214DF21C5032
:1048A00000F05AFD34214DF21D5000F055FD02215B
:1048B0004DF21E5000F050FD67214DF21F5000F0E8
:1048C0004BFD02214DF2205000F046FD84214DF2B7
:1048D000215000F041FD02214DF2225000F03CFD3C
:1048E000A4214DF2235000F037FD02214DF2245057
:1048F00000F032FDB7214DF2255000F02DFD0221D0
:104900004DF2265000F028FDCF214DF2275000F047
:1049100023FD02214DF2285000F01EFDDE214DF254
:10492000295000F019FD02214DF22A5000F014FD2B
:10493000F2214DF22B5000F00FFD02214DF22C50D0
:1049400000F00AFDFE214DF22D5000F005FD03217F
:104950004DF22E5000F000FD10214DF22F5000F0CE
:10496000FBFC03214DF2305000F0F6FC33214DF2F8
:10497000315000F0F1FC03214DF2325000F0ECFC1C
:104980006D214DF2335000F0E7FC00214FF456400A
:1049900000F0E2FC33214DF2016000F0DDFC00216B
:1049A0004DF2026000F0D8FC34214DF2036000F0BB
:1049B000D3FC00214DF2046000F0CEFC3A214DF210
:1049C000056000F0C9FC00214DF2066000F0C4FC57
:1049D0004A214DF2076000F0BFFC00214DF2086053
:1049E00000F0BAFC5C214DF2096000F0B5FC00213A
:1049F0004DF20A6000F0B0FC81214DF20B6000F036
:104A0000ABFC00214DF20C6000F0A6FCA6214DF29B
:104A10000D6000F0A1FC00214DF20E6000F09CFC46
:104A2000E5214DF20F6000F097FC01214DF210607E
:104A300000F092FC13214DF2116000F08DFC012179
:104A40004DF2126000F088FC54214DF2136000F02A
:104A500083FC01214DF2146000F07EFC82214DF2B6
:104A6000156000F079FC01214DF2166000F074FC35
:104A7000CA214DF2176000F06FFC02214DF2186060
:104A800000F06AFC00214DF2196000F065FC022183
:104A90004DF21A6000F060FC01214DF21B6000F045
:104AA0005BFC02214DF21C6000F056FC34214DF2FB
:104AB0001D6000F051FC02214DF21E6000F04CFC24
:104AC00067214DF21F6000F047FC02214DF220608B
:104AD00000F042FC84214DF2216000F03DFC0221F7
:104AE0004DF2226000F038FCA4214DF2236000F06A
:104AF00033FC02214DF2246000F02EFCB7214DF270
:104B0000256000F029FC02214DF2266000F024FC13
:104B1000CF214DF2276000F01FFC02214DF22860EA
:104B200000F01AFCDE214DF2296000F015FC022194
:104B30004DF22A6000F010FCF2214DF22B6000F0E3
:104B40000BFC02214DF22C6000F006FCFE214DF220
:104B50002D6000F001FC03214DF22E6000F0FCFB03
:104B600010214DF22F6000F0F7FB03214DF2306071
:104B700000F0F2FB33214DF2316000F0EDFB032138
:104B80004DF2326000F0E8FB6D214DF2336000F031
:104B9000E3FB55214FF4704000F0DEFBAA214FF2F9
:104BA000010000F0D9FB52214FF2020000F0D4FBCB
:104BB0000821584600F0D0FB0021184600F0CCFB3D
:104BC000CC214FF4314000F0C7FB00214BF2011023
:104BD00000F0C2FB05214FF4364000F0BDFB702110
:104BE0004FF4374000F0B8FB70214BF2017000F039
:104BF000B3FB01214FF4384000F0AEFB03214BF62C
:104C0000010000F0A9FB03214BF6020000F0A4FB19
:104C100003214BF6030000F09FFB02214FF43C40C0
:104C200000F09AFB00214BF6014000F095FB0021BB
:104C30004BF6024000F090FBD0214FF4494000F0C9
:104C40008BFB02214CF6011000F086FB50214CF644
:104C5000021000F081FB50214CF6031000F07CFBA9
:104C600050214CF6041000F077FB00214FF4545013
:104C700000F072FB55214FF4685000F06DFB4FF4CB
:104C8000885000F052FB782002F0A8F94FF424502D
:104C900000F04BFBB9E04045FCD1E22000F045FBC1
:104CA0001D2000F036FB022000F033FB042000F052
:104CB00030FB642002F092F9E02000F036FB012086
:104CC00000F027FB0A2002F07BF9E02000F02DFB2A
:104CD000032000F01EFB0C2002F072F9012000F00E
:104CE00024FB0A2002F06CF9E62000F01EFB2F20C6
:104CF00000F00FFBFF2000F00CFBFF2000F009FB91
:104D0000B02000F012FB202000F003FB002000F098
:104D100000FB032000F0FDFA40F21F3000F0F9FA2A
:104D2000012000F0F6FA40F2DF1000F0F2FA002065
:104D300000F0EFFAB42000F0F8FA042000F0E9FAED
:104D400040F21F4000F0E5FA002000F0E2FA2E20C9
:104D500000F0DFFA002000F0DCFA002000F0D9FAC1
:104D6000002000F0D6FA002000F0D3FAB62000F0C0
:104D7000DCFA022000F0CDFA4FF4037000F0C9FA1B
:104D8000002000F0C6FA172000F0C3FA152000F04A
:104D9000C0FA002000F0BDFA002000F0BAFAF020BE
:104DA00000F0C3FA032000F0B4FA292000F0BDFAA5
:104DB000D02000F0BAFA002000F0ABFABE2000F0DC
:104DC000B4FA052000F0A5FAFE2000F0A2FA0120B6
:104DD00000F09FFA002000F09CFA002000F099FA01
:104DE000002000F096FAB82000F09FFA032000F0AF
:104DF00090FA012000F08DFABA2000F096FA012016
:104E000000F087FA642000F04BF8A188494507D0EC
:104E1000A94205D0B94203D0B14201D041451ED1CB
:104E20004FF02040D0F81C2122F00F02C0F81C21C6
:104E3000D0F81C2122F47062C0F81C21D0F81C218B
:104E400042F00302C0F81C21A942D0F81C1102D183
:104E500041F4407101E041F40071C0F81C110020E0
:104E6000FDF7AEFC0122D1030348FBF74BFF504690
:104E7000BDE8F05FFDF78ABC000402400246012055
:104E800000E05043491EC9B2FBD2704708B54FF04D
:104E9000D840B0F88000ADF80000BDF8000008BDB3
:104EA00010B50246BE2000F040FA052000F031FAAD
:104EB0001046FBF732FB9FED0C1B53EC112BFBF75D
:104EC000BAFAFBF737FB80B200F023FA012000F0BA
:104ED00020FAFF2000F01DFA002000F01AFABDE8C9
:104EE0001040002000F015BA6666666666660440EB
:104EF00070B55E4C00232146A279898841F663167D
:104F0000012A01D01AB10CE0B14202D109E0B1424C
:104F100007D1082805D2DFE800F0161812140C1982
:104F2000100E082812D2DFE800F0110406080A0C5F
:104F30000E1080230AE0402308E0C02306E020236F
:104F400004E0602302E0A02300E0E02345F21055D6
:104F5000A94202D14FF4585000E03620A1F5134287
:104F6000413A03D0A1F5EE42893A01D143F008035A
:104F7000194600F0F1F9A188B1420AD098062088BC
:104F8000628802D5904202D303E0904201D9228088
:104F900060806089A94240D100F0C7F9002000F08C
:104FA000B8F96089401C80B200F0BFF9002000F021
:104FB000B0F96089801C80B200F0B7F92088401EEB
:104FC000C0F30F2000F0A5F96089C01C80B200F08A
:104FD000ACF92078401EC0B200F09BF9A08900F027
:104FE000A4F9002000F095F9A089401C80B200F0DF
:104FF0009CF9002000F08DF9A089801C80B200F09F
:1050000094F96088401EC0F30F2000F082F9A08957
:10501000C01C80B200F089F921E000F086F9002080
:1050200000F077F9002000F074F92088401EC0F3EA
:105030000F2000F06EF92078401EC0B200F069F930
:10504000A08900F072F9002000F063F9002000F060
:1050500060F96088401EC0F30F2000F05AF9A07874
:10506000BDE87040401EC0B200F053B97C1400206F
:10507000F0B53B4A0D460446060A918810462F0AB1
:105080004089A1F5C853633B16D0A1F5AA43103B54
:105090004CD000F04AF9304600F03BF9E0B200F0A5
:1050A00038F9908900F041F9384600F032F9E8B259
:1050B000BDE8F04000F02DB9917931B300F035F939
:1050C000304600F026F9E0B200F023F91088401EC7
:1050D000C0F30F2000F01DF91078401E5FFA80F039
:1050E00000F017F9908900F020F9384600F011F926
:1050F000E8B200F00EF95088401EC0F30F2000F017
:1051000008F99078401EC0B2D2E71188091B491EE9
:105110008CB200F00AF9002000F0FBF8002000F04B
:10512000F8F8200A00F0F5F8E0B2D9E700F0FDF851
:10513000304600F0EEF85089401C80B200F0F5F8DF
:10514000E0B200F0E6F8908900F0EFF8384600F0A1
:10515000E0F89089401C80B200F0E7F8A7E7000073
:105160007C1400202DE9FF4F1D460C468A46580747
:1051700000D0012000EBD500690810FB01F0203AB7
:1051800000F0FF09D0B20026DFF8A4B002904BE097
:105190000C2D11D0102D14D0182D17D0202D45D145
:1051A0002449029801EBC0104FF00008875D3806D3
:1051B00013D52148026814E00298204900EB400012
:1051C00008E01F49029801EB0010EDE702981D4925
:1051D00000EBC00001EB8000E6E70D9828B9164807
:1051E000426821460098FDF747FB7806070E641CCD
:1051F000BBF80200A4B2A04218D9A4EB0A00A8424E
:1052000009D100985446401C80B20090BBF80010B1
:1052100081420BD906E008F1010000F0FF08B8F167
:10522000080FC4D3761CF6B24E45B1D3BDE8FF8F4C
:105230007C140020D6D100084800002016BA0008CF
:105240008ABE00087AC400082DE9FF4F81B000260D
:10525000DDF838A01D46934681463446B0464FEAF5
:105260005A0727E0281B401EC1B20A20FFF706FE9E
:10527000BBFBF0F00A21B0FBF1F201FB120026B9F2
:10528000691E8C4201DA48B101263030C2B207FBF8
:10529000049080B25346CDF8008006E007FB0490EE
:1052A00080B253462022CDF800800299FFF75AFFC2
:1052B000641CE4B2AC42D5D305B0BDE8F08F2DE953
:1052C000F84F044600F0FF0910190D46DDE90AB653
:1052D0001FFA80F8581987B24FF0000A12E04445CF
:1052E00003D305EB0B004C4685B2BD420FD25B46A3
:1052F00029462046CDF800A0FFF734FF04EB5B0001
:1053000084B2761C3278A2F120005E28E7D9BDE88D
:10531000F88F01B5BDF80000ADF80000BDF8000041
:105320004FF0D841A1F8800008BD01B5BDF80000DC
:10533000ADF80000BDF800004FF0D841A1F87E00A4
:1053400008BD000003484FF0D8410089A1F87E0055
:10535000704700007C1400204FF0D84222F87E0FE6
:105360005180704700B587B01C216846FBF714F8E0
:1053700014484FF02041102201601349416006217A
:1053800081600021C160C0E904128161C161130222
:105390000162C0E90913C162016341638163416431
:1053A0000F200090019002AB3C2083E80700112001
:1053B000CDE90501002269460248FDF74AF807B029
:1053C00000BD000064130020040100A02DE9F04797
:1053D00086B014216846FAF7DFFF434800240168CD
:1053E00041F010010160016801F0100105910168B0
:1053F00041F004010160016801F0040105910168B8
:1054000041F020010160016801F02001059101686F
:1054100041F080010160016801F08001059101689F
:1054200041F001010160016801F00101059101688D
:1054300041F002010160016801F00201059101687B
:1054400041F008010160016801F00801059101685F
:1054500041F0400101600068DFF8909000F04000EA
:105460004FF4E0660590002231464846FBF74AFCBF
:10547000DFF87CA04FF48047002239465046FBF706
:1054800041FC4FF40048012241465046FBF73AFCEC
:105490001C2001258DE8310069461648FBF74AFBC0
:1054A0000096CDE90154694648460394FBF742FB58
:1054B000CDE90054022669460F480296FBF73AFBF5
:1054C0000097CDE90154694650460394FBF732FB3F
:1054D000CDE90085CDE9025669465046FBF72AFB27
:1054E00006B0BDE8F08700003038024000140240EA
:1054F0000004024000100240000002402DE9F04785
:1055000090B014210AA8FAF747FF00242821684622
:105510000F94FAF741FF39483749C0E900147F2159
:105520008160FF21C0E9031444618461FCF70EF837
:1055300000213248FBF7C9FF45F2500A504558D0C8
:1055400016258DF8285043208DF829008DF82A4023
:105550000D9401220AA929480E94FCF785F9062624
:105560008DF83C6005278DF83D704FF028088DF8C8
:105570003E804FF022098DF83F9001220FA91F486D
:10558000FCF70EF9524600211C48FBF7A3FF8DF8EB
:10559000285045208DF829008DF82A400D940122CD
:1055A0000AA916480E94FCF75FF98DF83C608DF857
:1055B0003D708DF83E808DF83F9001220FA90F4875
:1055C000FCF7EEF88DF8005020208DF801000194D2
:1055D0004006CDE90640049480158DF802400394FE
:1055E000099005948DF82060012269460348FCF774
:1055F0001BF810B0BDE8F0870028004080120020A2
:1056000070B51448124D0024C0E900548460C46091
:1056100005210461C0E90541FCF74EFBEE1431465B
:105620000C48FCF7B3F90C48C0E900548460C4602E
:10563000046144618461FCF73FFB08490648FCF7BC
:1056400013FB3146BDE870400348FCF79FB90000EA
:10565000002C0140A0120020E42400206825002036
:105660000C4810B50A4901604FF4E1314160002156
:1056700081600C22C160C0E904128161C161FCF744
:10568000B9FFBDE81040012203490248FDF722B8E6
:10569000001001402413002036000020FEE7704770
:1056A0000148FBF725BF000080120020002102E026
:1056B0000A38C0B2491C0A28FAD2090740EA116028
:1056C0007047000070B504460068C168490614D4EC
:1056D0004FF0FF31C160FBF71BFB05464FF47A76B4
:1056E00007E000BFFBF714FB401BB04201D90320C9
:1056F00070BD2068C0684006F4D5002070BD0A68FF
:1057000042624A688262D1E902231A43D1E9043134
:105710000B43C16A1A4321F0F7011143C162002013
:105720007047006800F00300704708444069704704
:1057300070B50DF1100C11439CE870002343194320
:1057400029434268314347F6FF639A430A43426064
:10575000002070BD10B5032101600220FBF784F921
:10576000002010BDD0F8800070470A688260D1E93F
:1057700001231A43D1E903310B43C1681A436FF384
:105780000B011143C160002070470968C0F8801008
:105790000020704710B586B004463720CDE90010D0
:1057A00040200290002003904FF4806004906946EE
:1057B0002046FFF7DAFF41F288323721204600F019
:1057C000BDF906B010BD000010B504460A4886B009
:1057D00001432920CDE900104020029000200390D1
:1057E0004FF48060049069462046FFF7BEFF2046D4
:1057F00000F05CFA06B010BD0000108010B586B055
:1058000004461020CDE900104020029000200390B3
:105810004FF48060049069462046FFF7A6FF41F2EE
:1058200088321021204600F089F906B010BD10B56D
:1058300086B004460620CDE90010402002900020EA
:1058400003904FF48060049069462046FFF78DFF77
:1058500041F288320621204600F070F906B010BDF2
:1058600030B585B000240546009401944FF4806063
:105870000294CDE9034069462846FFF776FF0B48BE
:105880004FF4FA510068B0FBF1F041F2883148431F
:10589000401E03D24FF0004005B030BD696B0906D1
:1058A000F6D5C520A8632046F6E700002C000020AE
:1058B00070B585B004464FF4D570009001A908205A
:1058C0004025002681E86100C00104906946204619
:1058D000FFF74BFF12484FF4FA510068B0FBF1F0AC
:1058E00041F288314843401E03D24FF0004005B0DA
:1058F00070BD616B11F0450FF5D00905F3D4606BF5
:10590000400701D5042003E0606BC00702D00120EE
:10591000A063ECE7606B400600D5A5633046E6E780
:105920002C00002010B586B004461220CDE90010EE
:1059300040200290002003904FF48060049069465C
:105940002046FFF712FF41F288321221204600F074
:10595000F5F806B010BD10B586B004461120CDE9AB
:10596000001040200290002003904FF480600490CB
:1059700069462046FFF7F9FE41F2883211212046A0
:1059800000F0DCF806B010BD10B586B00446072064
:10599000CDE9002040200290002003904FF4806069
:1059A000049069462046FFF7E0FE41F28832072165
:1059B000204600F0C3F806B010BD10B586B004460E
:1059C00000210220CDE90010C020CDE902014FF4F2
:1059D0008060049069462046FFF7C7FE204600F02D
:1059E0003DF906B010BD10B586B004460920CDE9DA
:1059F0000010C0200290002003904FF480600490BB
:105A000069462046FFF7B1FE204600F027F906B0B0
:105A100010BD10B586B0044600213320CDE900103A
:105A20004020CDE902010001049069462046FFF7BD
:105A30009CFE41F288323321204600F07FF806B008
:105A400010BD10B586B004460D20CDE900104020F1
:105A50000290002003904FF4806004906946204635
:105A6000FFF783FE41F288320D21204600F066F8F0
:105A700006B010BD30B585B00C46054600210320A8
:105A8000CDE900104020CDE90201000104906946F3
:105A90002846FFF76AFE22460321284600F028F92F
:105AA00005B030BD10B586B0044600210C20CDE90C
:105AB00000104020CDE90201000104906946204613
:105AC000FFF753FE034A0C21204600F037F806B0DA
:105AD00010BD000000E1F50510B586B004461920A0
